:10F0000082433A01B24000C03C01B24004313001B9
:10F01000B240850238011A423A011B423C011C42AF
:10F020003E0103431F43034303430343034382431C
:10F030003A01B24000C03C018243300182433801B2
:10F040001A423A011B423C011C423E0103432F433A
:10F05000034303430343034382433A01B24000C0E6
:10F060003C0192433001924338011A423A011B425B
:10F070003C011C423E0103433F4003000343034362
:10F080000343034382433A01B24000C03C01B24013
:10F09000FF7F3001B240FF7F38011A423A011B4224
:10F0A0003C011C423E0103432F42034303430343FD
:10F0B000034382433A01B24000C03C01B2433001F5
:10F0C000B24338011A423A011B423C011C423E0144
:10F0D00003433F4005000343034303430343824389
:10F0E0003A01B24000C03C01B240FF7F3001B24360
:10F0F00038011A423A011B423C011C423E010343C3
:10F100003F400600034303430343034382433A0162
:10F11000B24000C03C01B24000803001B240FF7FED
:10F1200038011A423A011B423C011C423E01034392
:10F130003F400700034303430343034382433A0131
:10F14000B24000C03C01B24000803001B2433801FF
:10F150001A423A011B423C011C423E0103433F421A
:10F16000034303430343034382433A01B24000C0D5
:10F170003C01B24000803001B240008038011A42A8
:10F180003A011B423C011C423E0103433F4009003F
:10F19000034303430343034382433A01B24000C0A5
:10F1A0003C01B24004313201B240858238011A423A
:10F1B0003A011B423C011C423E0103431F430343EF
:10F1C00003430343034382433A01B24000C03C017E
:10F1D00082433201824338011A423A011B423C0108
:10F1E0001C423E0103432F430343034303430343B2
:10F1F00082433A01B24000C03C0192433201924343
:10F2000038011A423A011B423C011C423E010343B1
:10F210003F400300034303430343034382433A0154
:10F22000B24000C03C01B240FF7F3201B240FF7FDC
:10F2300038011A423A011B423C011C423E01034381
:10F240002F42034303430343034382433A01B24043
:10F2500000C03C01B2433201B24338011A423A01C4
:10F260001B423C011C423E0103433F400500034357
:10F2700003430343034382433A01B24000C03C01CD
:10F28000B240FF7F3201B24338011A423A011B42B9
:10F290003C011C423E0103433F400600034303433D
:10F2A0000343034382433A01B24000C03C01B240F1
:10F2B00000803201B240FF7F38011A423A011B42FE
:10F2C0003C011C423E0103433F400700034303430C
:10F2D0000343034382433A01B24000C03C01B240C1
:10F2E00000803201B24338011A423A011B423C010C
:10F2F0001C423E0103433F42034303430343034392
:10F3000082433A01B24000C03C01B2400080320169
:10F31000B240008038011A423A011B423C011C42B3
:10F320003E0103433F4009000343034303430343B8
:10F3300082433A01B24000C03C01B2400431340182
:10F34000B240850238011A423A011B423C011C427C
:10F350003E0103431F4303430343034303438243E9
:10F360003A01B24000C03C0182433401824338017B
:10F370001A423A011B423C011C423E0103432F4307
:10F38000034303430343034382433A01B24000C0B3
:10F390003C0192433401924338011A423A011B4224
:10F3A0003C011C423E0103433F400300034303432F
:10F3B0000343034382433A01B24000C03C01B240E0
:10F3C000FF7F3401B240FF7F38011A423A011B42ED
:10F3D0003C011C423E0103432F42034303430343CA
:10F3E000034382433A01B24000C03C01B2433401BE
:10F3F000B24338011A423A011B423C011C423E0111
:10F4000003433F4005000343034303430343824355
:10F410003A01B24000C03C01B240FF7F3401B24328
:10F4200038011A423A011B423C011C423E0103438F
:10F430003F400600034303430343034382433A012F
:10F44000B24000C03C01B24000803401B240FF7FB6
:10F4500038011A423A011B423C011C423E0103435F
:10F460003F400700034303430343034382433A01FE
:10F47000B24000C03C01B24000803401B2433801C8
:10F480001A423A011B423C011C423E0103433F42E7
:10F49000034303430343034382433A01B24000C0A2
:10F4A0003C01B24000803401B240008038011A4271
:10F4B0003A011B423C011C423E0103433F4009000C
:10F4C000034303430343034382433A01B24000C072
:10F4D0003C01B24004313601B240858238011A4203
:10F4E0003A011B423C011C423E0103431F430343BC
:10F4F00003430343034382433A01B24000C03C014B
:10F5000082433601824338011A423A011B423C01D0
:10F510001C423E0103432F4303430343034303437E
:10F5200082433A01B24000C03C019243360192430B
:10F5300038011A423A011B423C011C423E0103437E
:10F540003F400300034303430343034382433A0121
:10F55000B24000C03C01B240FF7F3601B240FF7FA5
:10F5600038011A423A011B423C011C423E0103434E
:10F570002F42034303430343034382433A01B24010
:10F5800000C03C01B2433601B24338011A423A018D
:10F590001B423C011C423E0103433F400500034324
:10F5A00003430343034382433A01B24000C03C019A
:10F5B000B240FF7F3601B24338011A423A011B4282
:10F5C0003C011C423E0103433F400600034303430A
:10F5D0000343034382433A01B24000C03C01B240BE
:10F5E00000803601B240FF7F38011A423A011B42C7
:10F5F0003C011C423E0103433F40070003430343D9
:10F600000343034382433A01B24000C03C01B2408D
:10F6100000803601B24338011A423A011B423C01D4
:10F620001C423E0103433F4203430343034303435E
:10F6300082433A01B24000C03C01B2400080360132
:10F64000B240008038011A423A011B423C011C4280
:10F650003E0103433F400900034303430343034385
:10F66000B24034123001B2407856380103431A4296
:10F6700030011B4232011C4234011D4236011E4240
:10F68000380103431F430343034303430343B2408F
:10F6900021433201B2406587380103431A423001E9
:10F6A0001B4232011C4234011D4236011E42380108
:10F6B00003432F430343034303430343B240BC9A32
:10F6C0003401B240F0DE380103431A4230011B42DC
:10F6D00032011C4234011D4236011E4238010343EF
:10F6E0003F4003000343034303430343B240A9CB1A
:10F6F0003601B240ED0F380103431A4230011B427C
:10F7000032011C4234011D4236011E4238010343BE
:10F710002F420343034303430343B24034123001F7
:10F720001A423001F240AB0030011B42300103436A
:10F730001F430343B240785632011A423201F2406D
:10F74000BC0032011B42320103432F430343B2404A
:10F75000BC9A34011A423401F240DE0034011B42EB
:10F76000340103433F4003000343B240F0DE36015F
:10F770001A423601F240ED0036011B4236010343C6
:10F780002F420343B240214338011A423801F2406C
:10F79000DC0038011B42380103433F4005000343AE
:10F7A000B24065873A011A423A01F240CB003A0171
:10F7B0001B423A0103433F4006000343B240A9CB3A
:10F7C0003C011A423C01F240BA003C011B423C01A0
:0EF7D00003433F400700034303433040FFFF65
:10FFE000D8F7D8F7D8F7D8F7D8F7D8F7D8F7D8F799
:10FFF000D8F7D8F7D8F7D8F7D8F7D8F7D8F700F068
:040000030000F00009
:00000001FF
